:020000040800F2
:1000000000200020358D0008AD860008B786000866
:1000100000000000000000000000000000000000E0
:10002000000000000000000000000000BD86000885
:100030000000000000000000C7860008D18600080C
:10004000858D0008858D0008858D0008858D000848
:10005000858D0008858D0008858D0008858D000838
:10006000858D0008858D0008858D0008858D000828
:10007000858D0008858D0008858D0008858D000818
:10008000858D0008858D000800000000858D000822
:10009000858D0008858D0008858D0008858D0008F8
:1000A000858D0008858D0008858D0008858D0008E8
:1000B000E186000800000000858D000800000000B7
:1000C00010B5064C2378002B07D1054B002B02D02E
:1000D000044800E000BF0123237010BD840000200D
:1000E0000000000024C10008044B10B5002B03D011
:1000F0000349044800E000BF10BDC04600000000F6
:100100008800002024C1000802B471464908490053
:10011000095C49008E4402BC7047C0460022430877
:100120008B4274D303098B425FD3030A8B4244D3BF
:10013000030B8B4228D3030C8B420DD3FF22090201
:1001400012BA030C8B4202D31212090265D0030BC0
:100150008B4219D300E0090AC30B8B4201D3CB03B6
:10016000C01A5241830B8B4201D38B03C01A5241F8
:10017000430B8B4201D34B03C01A5241030B8B42FA
:1001800001D30B03C01A5241C30A8B4201D3CB02E5
:10019000C01A5241830A8B4201D38B02C01A5241CA
:1001A000430A8B4201D34B02C01A5241030A8B42CD
:1001B00001D30B02C01A5241CDD2C3098B4201D3E5
:1001C000CB01C01A524183098B4201D38B01C01A63
:1001D000524143098B4201D34B01C01A52410309DA
:1001E0008B4201D30B01C01A5241C3088B4201D389
:1001F000CB00C01A524183088B4201D38B00C01A36
:10020000524143088B4201D34B00C01A5241411A5C
:1002100000D20146524110467047FFE701B5002069
:1002200000F0F0F802BDC0460029F7D076E770472D
:1002300003460B437FD4002243088B4274D3030947
:100240008B425FD3030A8B4244D3030B8B4228D3E8
:10025000030C8B420DD3FF22090212BA030C8B420E
:1002600002D31212090265D0030B8B4219D300E0AE
:10027000090AC30B8B4201D3CB03C01A5241830B33
:100280008B4201D38B03C01A5241430B8B4201D3E3
:100290004B03C01A5241030B8B4201D30B03C01A0C
:1002A0005241C30A8B4201D3CB02C01A5241830A86
:1002B0008B4201D38B02C01A5241430A8B4201D3B5
:1002C0004B02C01A5241030A8B4201D30B02C01ADF
:1002D0005241CDD2C3098B4201D3CB01C01A524146
:1002E00083098B4201D38B01C01A524143098B42CF
:1002F00001D34B01C01A524103098B4201D30B01B8
:10030000C01A5241C3088B4201D3CB00C01A5241DC
:1003100083088B4201D38B00C01A524143088B42A1
:1003200001D34B00C01A5241411A00D2014652413A
:10033000104670475DE0CA0F00D04942031000D359
:100340004042534000229C4603098B422DD3030AAE
:100350008B4212D3FC22890112BA030A8B420CD3BE
:10036000890192118B4208D3890192118B4204D3E7
:1003700089013AD0921100E08909C3098B4201D367
:10038000CB01C01A524183098B4201D38B01C01AA1
:10039000524143098B4201D34B01C01A5241030918
:1003A0008B4201D30B01C01A5241C3088B4201D3C7
:1003B000CB00C01A524183088B4201D38B00C01A74
:1003C0005241D9D243088B4201D34B00C01A52414B
:1003D000411A00D20146634652415B10104601D3D8
:1003E0004042002B00D54942704763465B1000D362
:1003F000404201B5002000F005F802BD0029F8D008
:1004000016E770477047C0468446101C62468C460B
:10041000191C634600E0C0461FB501F041FD0028ED
:1004200001D40021C8421FBD10B501F09BFC404221
:10043000013010BD10B501F033FD002801DB0020B4
:1004400010BD012010BDC04610B501F029FD0028E7
:1004500001DD002010BD012010BDC04610B501F027
:10046000BBFC002801DC002010BD012010BDC046EF
:1004700010B501F0B1FC002801DA002010BD012008
:1004800010BDC046F0B5C6464E024702760A7B0A4A
:100490004400C50FF7004800984600B5240E2A0016
:1004A000DB00000EC90FBC468D4267D0221A002A1D
:1004B00000DCA5E000283AD1002F00D193E0511EC6
:1004C000002900D0BCE00124DB1B5A0146D59B016A
:1004D0009E09300002F04EFC05388640844200DD63
:1004E0009DE0041B320020200134E240041BA640A2
:1004F00033005E1EB341002413435A0704D00F2279
:100500001A40042A00D004335A0129D50134FF2CA3
:1005100000D181E02A009B015B0AE4B25B02E405A2
:10052000580AD2072043104304BC9046F0BDFF2C6C
:10053000E3D080213800C904084384461B2A00DD2B
:1005400082E020206146D140821A6046904002003D
:10055000501E82410A439B1A5A01B8D45A07CED181
:10056000DE082A00FF2C3AD1002E00D1AEE0802315
:10057000DB0333435B025B0AFF24CFE7211A002928
:1005800052DD002831D0FF2CB7D080203E00C004BF
:100590000643B4461B2900DDAAE020266046C84079
:1005A000711A66468E4031004E1EB14101435B1800
:1005B0005901D3D50134FF2C00D187E001227849BD
:1005C0001A405B080B40134397E7002C00D0A7E0CC
:1005D000002B00D0B6E03B1E62D100260022730241
:1005E0005B0AE4B29AE7140087E7002F4DD0481E5B
:1005F000002857D1634401245A01AFD50224DDE716
:10060000002A24D1621CD2B2012ADEDDDE1B720177
:1006100035D5FE1A0D005CE72A0000237EE7330083
:10062000604A241A134068E7002963D1611CC8B2EC
:1006300001284EDDFF2949D063445B080C005CE7CC
:10064000FF2A41D00A0079E701229B1A84E7002C97
:100650001DD0FF2822D08024E404524223431B2AC9
:1006600000DD8AE01C002025D440AA1A93405A1EBF
:100670009341234362460400D31A0D0025E7002E60
:1006800000D026E700220024A9E70C0035E7002B64
:100690004DD0D243002AEDD0FF28E0D16346FF249D
:1006A0000D002AE7FF290FD0010073E7002B61D06E
:1006B000FF24002F00D120E780224146D2031142BF
:1006C00002D0164200D13B00FF2416E7FF2400238E
:1006D00024E7002CEAD1002B58D0002F00D10CE7E2
:1006E00063445A0100D439E72E4A0C00134004E752
:1006F00001215CE7002C1ED1002B40D0C94300290A
:100700000BD0FF2836D01B2947DC1C002026CC400C
:10071000711A8B40591E8B4123436344040047E701
:10072000002B18D13B1E2DD00D00FF24E5E63B0029
:1007300004000D00E1E6FF281CD08024E4044942B7
:100740002343E0E7002F00D1D7E6DE1B72011FD55F
:10075000FB1A0D00D1E6FF24002F00D1CDE6802248
:100760004046D2031042AFD01642ADD13B000D003F
:10077000FF24C2E66346FF24BFE601237AE73B007D
:100780000400BAE680260022F603F0E63B00B4E659
:10079000331E00D0E2E6002221E70123BDE7C04678
:1007A000FFFFFF7DFFFFFFFBF0B557464E46DE46DD
:1007B0004546E0B544024300C60F83B00F1C640AEF
:1007C0001B0EB24653D0FF2B27D08022E400D20468
:1007D00014437F22524290469844002399469B46F8
:1007E0007D027800FB0F6D0A000E009324D0FF28D5
:1007F00046D080230021ED00DB041D437F384746AF
:10080000381A4F460F43BF00B9463300009A874F4E
:1008100053404A46BA5801939746002C4ED10823BC
:100820009946F7339846FD3B9B467D027800FB0FC7
:100830006D0A000E0093DAD1002D26D1002001218F
:100840003300009A7A4F53404246101A4A460A43F0
:100850009200BA581D009746009B2C009A468B4682
:100860005B46022B31D15346FF21002438E0002C97
:1008700017D1042399460023984601339B46AFE7DE
:10088000FF20002D0BD10221DAE7280002F072FAD6
:10089000431F9D4076235B42181A0021AFE70321D6
:1008A000ADE7200002F066FA431F9C4076235B42CE
:1008B0001B1A9846002399469B4691E70C239946BC
:1008C000F3339846FC3B9B468AE7032B00D1A5E017
:1008D0005546012B00D081E00123002100242B404C
:1008E0006402C905600ADB070843184303B03CBC37
:1008F00090469946A246AB46F0BD80240023E4030F
:10090000FF21EDE7FF210024EAE70123591A1B2903
:1009100066DD019A134000210024E1E78023DB0318
:100920001C4238D01D4251D01C436402640A33007B
:10093000FF21D5E763016C01A3423BD21B260021B6
:10094000013801251F0049005B00002F01DB9C429C
:1009500001D81B1B2943013E002EF3D11C00631E4E
:100960009C410C4301007F310029CEDD630704D098
:100970000F232340042B00D00434230103D50100AE
:100980002C4B80311C40FE290DDD0123019AFF21F3
:1009900013400024A4E78023DB031C436402640AA1
:1009A0003300FF219CE70123019AA401640AC9B224
:1009B000134095E71B1B1A260121C2E7009B8B46BB
:1009C0009A4600244CE76302E5D500258024E40321
:1009D0002C436402640A009BFF2181E70195C1E773
:1009E00023002020CB40411A8C40611E8C411C43C7
:1009F000630704D00F232340042B00D00434630189
:100A000005D50123019A01211340002468E7012341
:100A1000019AA401640A1340002161E78023DB03EB
:100A20001C436402640A5346FF2159E730C300089F
:100A300070C30008FFFFFFF7F8B557464E4645461E
:100A4000DE46E0B54702460088467F0A360EC40FF0
:100A5000002E47D0FF2E24D0FB008027FF041F4329
:100A6000002399469A467F3E43465D025800DB0FBD
:100A70006D0A000E984643D0FF283BD0EB0080253E
:100A80000022ED041D437F383618731C41469B46F7
:100A90004B46614013430F2B64D875489B00C358E5
:100AA0009F46002F42D108239946063BFF269A46CF
:100AB000DAE74146022A28D0032A00D1CEE0012AF3
:100AC00000D0ACE0114000200022CCB24002D205A0
:100AD000400AE407104320433CBC90469946A24696
:100AE000AB46F8BD002F15D104239946033B0026E1
:100AF0009A46B9E7FF200222002DC5D00322C3E7A2
:100B0000002D19D100200122BEE70124FF220C4054
:100B10000020DBE7380002F02DF97626431F9F40C6
:100B200000237642361A99469A469DE70C23994649
:100B3000093BFF269A4697E7280002F01BF9431F5E
:100B40009D4076235B42181A00229DE780200024F6
:100B5000C003FF22BAE73D005246ABE73D0021004B
:100B60005246A7E73B0C9C462A04120C2B0C14009F
:100B7000604665463F043F0C7C4342435D437B43F4
:100B8000270C9B18FF18BA4203D980235B029C46AE
:100B9000654424043A04240C121993015C1EA341F9
:100BA0003F0C920E7D191A43AD0115432B0104D55C
:100BB00001235E466A081D40154332007F32002A39
:100BC00025DD6B0704D00F232B40042B00D0043508
:100BD0002B0103D53200274B80321D40FE2A94DCC6
:100BE0000124A801400AD2B20C406FE78020C00364
:100BF000074207D0054205D128434002400A444637
:100C0000FF2263E738434002400AFF225EE70124E7
:100C1000A31A1B2B05DD0C400022002056E75E4680
:100C2000CBE72A002020DA40C31A9D402B005D1E2E
:100C3000AB4113435A0704D00F221A40042A00D0B4
:100C400004335A0104D5012401220C4000203DE761
:100C500001249B01580A0C40002237E78020012420
:100C6000C00328434002400A0C40FF222EE7C04642
:100C7000B0C30008FFFFFFF7F0B54F46D646464623
:100C80004400C0B5C20F47024802400A8446664687
:100C90007B0A4800C90F9A46240E1500DB00000E9F
:100CA0008946F600FF2800D18FE001214F464F40D2
:100CB0003900914266D0221A002A00DC9DE000280B
:100CC0003DD1002E00D18BE0511E002900D0B5E0AF
:100CD00001249B1B5A0144D59B019F09380002F057
:100CE00049F805388740844200DD96E0041B3A004D
:100CF00020200134E240041BA7403B005F1EBB41A3
:100D0000002413435A0704D00F221A40042A00D0AB
:100D100004335A0127D50134FF2C00D179E0012298
:100D20009B015B0AE4B22A405B02E405580AD20741
:100D3000204310431CBC90469946A246F0BDFF2CB0
:100D4000E0D08021C9040E431B2A7BDC3100202027
:100D5000D140821A9640721E96410E439B1B5A0147
:100D6000BAD45A07D0D10122DF082A40FF2C33D150
:100D7000002F00D1A8E08023DB033B435B025B0A2A
:100D8000FF24D1E7211A00294CDD00282AD0FF2CAE
:100D9000B8D08020C00406431B2900DDAFE030003E
:100DA0002027C840791A8E40711E8E4106439B1938
:100DB0005901D6D50134FF2C00D185E001227A49B2
:100DC0001A405B080B4013439CE7002E00D070E7ED
:100DD0006BE73B1EC5D100227B025B0AE4B2A3E7AE
:100DE00014008FE7002E4DD0481E002857D19B19C4
:100DF00001245A01B5D50224E0E7002A25D1621C5E
:100E0000D2B2012A72DD9F1B7A0135D5F71A0D0087
:100E100064E7012200232A4086E73B00634A241A44
:100E200013406FE700296CD1611CC8B201284EDD68
:100E3000FF2949D09B195B080C0063E7FF2A41D0CA
:100E40000A0081E701269B1B89E7002C1CD0FF28A4
:100E500021D08024E404524223431B2A00DD96E083
:100E60001C002025D440AA1A93405A1E93412343C4
:100E7000F31A04000D002DE7002F00D02EE700220A
:100E80000024A9E70C003DE7002B58D0D243002AEC
:100E9000EED0FF28E1D13300FF240D0032E7FF2917
:100EA00010D0010078E7002B6ED0FF24002E00D177
:100EB00028E780225146D203114203D061461142F5
:100EC00000D13300FF241DE7FF2400232CE7002C72
:100ED000E9D1002B63D0002E00D113E79B195A01F2
:100EE00000D43EE7314A0C0013400BE7002C1ED122
:100EF000002B2FD1002E4FD033000D0002E701262A
:100F000055E7002C1FD1002B43D0C94300290BD03B
:100F1000FF2839D01B2944DC1C002027CC40791A3B
:100F20008B40591E8B4123439B19040040E7002B43
:100F30001AD1002E24D180270022FF031BE73300A3
:100F400004000D00DEE6FF281ED08024E4044942A0
:100F50002343DFE7002E00D1D4E69F1B7A0100D4A3
:100F600037E7F31A0D00CDE6FF24002E00D1C9E6C5
:100F700080225046D2031042A4D060461042A1D134
:100F800033000D00FF24BDE63300FF24BAE6012341
:100F90006EE733000400B5E6002700221CE73300AB
:100FA000B0E60123C0E7C046FFFFFF7DFFFFFFFB68
:100FB00070B5002830D0C317C4185C40C50F20009E
:100FC00001F0D8FE9E231B1A962B0DDC9622D21A16
:100FD00094402A006402640ADBB26402DB05600A02
:100FE000D2071843104370BD992B19DC9922D21AED
:100FF000002A29DD94402200144C1440510704D0EB
:101000000F210A40042A00D00434620113D4A40141
:10101000640ADBB22A00E0E7002200230024DCE7B8
:1010200005222100121AD140B922D21A9440621E20
:1010300094410C43DAE7054B2A001C409F23A4018E
:101040001B1A640ADBB2C8E72200D5E7FFFFFFFBEB
:1010500010B5041E27D001F08DFE9E231B1A962B7F
:101060000ADC9622D21A94406402640ADBB264025B
:10107000DB05600A184310BD992B17DC9922D21AA0
:10108000002A27DD94402200134C1440510704D05D
:101090000F210A40042A00D00434620112D4A401B2
:1010A000640ADBB2E3E700230024E0E7B922210071
:1010B000D21A91400A00511E8A410521091ACC40DA
:1010C0001443DBE7044B1C409F23A4011B1A640A52
:1010D000DBB2CCE72200D7E7FFFFFFFBF8B54546C0
:1010E000DE4657464E460C03E0B54E00C90F884613
:1010F0000D00610A440F0C43C70019035800DB0FB1
:101100009B464B0A510F0B43760D400D1900D20040
:10111000D84500D1AEE0351A002D00DCF6E00028FD
:101120000FD1134300D1DBE06B1E002B00D037E161
:10113000BA1A9742BF41641A7F42E41B0126170086
:1011400024E0C64B9E424DD080231B041943382D0A
:1011500000DD07E11F2D00DD38E12020431B9A460A
:101160000B0050468340994613004846EB40184315
:10117000030050468240501E8241E9401A43BA1A89
:10118000611A9742A441170064420C1B230262D5E6
:101190006402650A002D00D1DFE0280001F0EAFDBD
:1011A0000300083B1F2B00DDD2E020223C00D21AB6
:1011B0009D40D4409F4025439E4200DDC4E09E1BDD
:1011C000731C1F2B00DDF1E0202238002900D21A09
:1011D000D840914097402C000143781E8741DC4065
:1011E00000260F437B0709D00F233B40042B05D07B
:1011F0003B1DBB42BF417F42E4191F0023022CD597
:10120000964B01369E4200D19AE04546944BFF082A
:101210001C406007760564020743240B760D00210D
:101220002403230B0C0D8F4A24051C431440330563
:1012300023435B00ED075B082B43380019003CBCDF
:1012400090469946A246AB46F8BD6446044300D199
:1012500011E2040067467B07C6D145466007FF08D8
:101260000743E4087D4B9E4230D024037605240BCF
:10127000760DD4E7331A9A46002B78DD002831D05A
:1012800076488642AED08020000401435346382B76
:1012900000DCE9E00A43511E8A410021D219BA421A
:1012A000BF4109197C4217000C192302D3D56B4B9F
:1012B00001369E4200D13AE10120694B1C407B0877
:1012C00007401F43E007074364088BE723003B43C5
:1012D00000D1CBE18022120314432403240B9EE7A8
:1012E0002E007FE70800104300D1B4E0581E00280C
:1012F00000D0DEE0BA18BA429B4164185B42E418A1
:10130000170001262302A6D50226D5E7002D6ED1AF
:10131000701C4005400D012800DCF9E0B81A844635
:1013200087428041E51A40422D1A280200D489E004
:10133000D71BBA4292411C1B5242A51AD84629E734
:101340004546002400276AE7454CF61A2C4049E739
:101350003D002838854000272EE7380001F00AFDBF
:1013600020301DE70A43511E8A41002107E7002B68
:1013700000D0F3E0701C43055B0D012B00DCADE0F9
:10138000364B984200D1D1E0BA18BA42BF41641836
:101390007F42E419E707520817436408060021E773
:1013A0002E48854200D193E01D00D0E629001F3E63
:1013B000F140202B00D18DE04022D31A9D402F43D5
:1013C0007D1EAF4100240F43002644E72B00080098
:1013D000203BD8400300202D00D17DE04020451B5C
:1013E000A9400A43511E8A4100211A43C7E6002E34
:1013F00050D01A4EB04257D080266B4299463604E0
:1014000034434B46382B00DDD6E01F2B00DD35E1A1
:101410002026F51A2600AE40B2463E00DE40AC461D
:10142000350056462E436546AF407D1EAF41DC4039
:101430003743D71BBA4292410C1B5242A41A0600F2
:10144000D846A3E6644667462C4300D0A2E60025B2
:101450000026002706E71E00C4E6C046FF0700007E
:10146000FFFF7FFFFFFF0F801F2B63DC2020C31ACD
:10147000080098409C46834653461000D84003001D
:101480005846184363469A40531E9A4153460243B6
:10149000D94003E726003E4306D0EB439946002B94
:1014A000C7D0944EB042ACD10C0017000600D8460D
:1014B00098E6904B9A450BD08246E7E6002800D08C
:1014C0009EE01800104300D1E9E01C001700D84648
:1014D000884E87E6002572E7002182E723003B4320
:1014E000002E00D0ABE0002B00D1E7E00B0013434F
:1014F00000D177E6BA18BA42BF4164187F42E419B6
:10150000230200D4F2E07C4B17001C40060069E681
:1015100020003843002ED1D100285BD11C00144399
:1015200000D1A8E01C001700D8465BE606000024A6
:10153000002797E650460B002038C3409946534693
:10154000202B00D195E0402350461B1A99400A43B6
:10155000511E8A414B4600211A439FE6002E30D18E
:1015600026003E4367D0DB439A46002B1CD0614ED9
:10157000B04260D05346382B00DD96E01F2B00DDD3
:101580009FE02026F31A26009E409C46B346534611
:101590003E00DE4033005E461E4363469F407B1E96
:1015A0009F415346DC403743BF189742924164182D
:1015B0005242A418060078E627437C1EA741002467
:1015C00037E74C4EB04236D080265B4236049A460E
:1015D0003443CFE71800104300D103E6B81A84461D
:1015E0006745AD41E01A6D42401B050200D42CE670
:1015F000D71BBA4292411C1B5242A41AD846F1E5AD
:101600001800104300D163E7F808670707438020FC
:10161000E4080003044208D0DD08054205D1D208E1
:10162000590711430F002C00D8467B0FE4001C43E0
:10163000FF00304ED6E50C0017000600D2E5002B67
:1016400038D00B00134300D142E7F808670707437F
:101650008020E40800030442E7D0CB080342E4D131
:10166000D208490711430F001C00DEE700270024C1
:10167000D5E500216BE700250027F3E54E46250060
:10168000203EF5404B462E00202B2DD04025ED1A54
:10169000AC4027437C1EA74100243743C9E6802481
:1016A00000252403134E0027DCE527437C1EA741B9
:1016B000002479E70C0017000E4E93E50C0017008C
:1016C00090E556462300203EF34099465346202B92
:1016D0000ED0402356469B1B9C4027437C1EA741AF
:1016E0004B4600241F435FE70024D2E71700B2E512
:1016F0000024F2E7FF070000FFFF7FFFF0B5574629
:101700004546DE464E46E0B54C000E0387B08346A4
:1017100092461D008046360B640DCF0F002C4FD033
:101720006F4B9C4235D08023420F1B04F6001343BD
:1017300033439946C30098466A4B00269C460023D3
:10174000644403932B031B0B9B466B00ED0F504629
:101750005B0D01955ED0624A934253D05A46D10048
:101760008022400F120402430A4393465246D1009E
:101770005C4A9446002263443800684084460290E4
:10178000E41A16430F2E00D9B4E0574BB6009B590C
:101790009F460300334399466CD100239846023399
:1017A00008260393CEE7CB464146039A0197022AC7
:1017B00065D1019B4A4C9C460023002298466BE071
:1017C0000300334399464ED0002E00D1BCE13000D7
:1017D00001F0D0FA03000B3B1C2B00DDACE11D2215
:1017E000D31A5A460100DA4008398E4013003343B9
:1017F00099465B468B40984600233C4C0026241AB1
:1018000003939FE751465A46114329D1002293463C
:101810000232B1E7594601431ED05B46002B00D18E
:101820009EE1584601F0A6FA03000B3B1C2B00DD9D
:101830008FE102005946083A91408B461D21CB1A90
:101840005146D9400B0059460B4351469B469140A7
:10185000264B00221B1A8FE7002301229B468BE7B1
:101860005146032288E700239846013304260024CA
:10187000039367E70323B14603930C2662E7032A29
:1018800000D15CE2019B012A00D0E4E113409C46B8
:10189000002300240022984600211203130B0A0D96
:1018A00012051A432305124C404622401343624658
:1018B0005B00D2075B081343190007B03CBC90469D
:1018C0009946A246AB46F0BD002380229C461203F7
:1018D0009846034CE0E70023014C00229846DBE7E2
:1018E000FF07000001FCFFFFF0C300080DFCFFFF35
:1018F000FFFF0F80D94500D939E100D134E1002341
:1019000046464D469A46013C5B460A0E1B021A4368
:101910000B02170C039313041B0C3900280090468C
:101920000193FEF7FBFB0200019B83465A4328000C
:1019300039009146FEF778FC350C09040D43A945A2
:101940000DD95B464544013BA84500D93AE1A9457C
:1019500000D837E102235B429C464544E3444B46B2
:10196000EB1A390018000493FEF7D8FB019B050021
:101970004343390004989946FEF756FC33040904A2
:101980001B0C0B43994509D943446A1E984500D95D
:101990001AE1994500D817E1023D43444A469B1A93
:1019A0005A4612042A4303999346100C0A0C914696
:1019B00009045A46090C4E460D001204120C454308
:1019C000059151437243704352190E0CB21895425F
:1019D00003D980256D02AC466044150C090412043D
:1019E000090C28185218834200D2CEE000D1C8E07A
:1019F0001D1A53469E1AB24592415242AB1A9A465C
:101A0000984500D117E139001800FEF787FB019BCC
:101A100005004343390050460493FEF705FC049843
:101A20000B04310C1943884209D941446B1E884587
:101A300000D907E1884200D804E1023D4144049BFB
:101A4000CB1A180039000493FEF768FB019B82460D
:101A50004343390004980193FEF7E6FB01980B0419
:101A60003104090C194388420DD953464144013BC6
:101A7000884500D9E8E0884200D8E5E002235B42CF
:101A80009C464144E244019B2D04CE1A5146294311
:101A9000059D4F462A000B04080C1B0C5A43454376
:101AA0007B4378435B19170CFB189D4203D98025B3
:101AB0006D02AC4660441D0C12041B04120C281865
:101AC0009B18864200D293E000D18EE00123194397
:101AD000A04BE318002B00DC99E04A0700D09EE001
:101AE0005A46D20106D55A469B4B1A40802393464C
:101AF000DB00E318994A934268DD0123029A984C6F
:101B00001A400023944698460022C5E680224B46A0
:101B1000120313420AD05B46134206D11A43120342
:101B2000120BAC4688468E4CB6E64B461A4312035F
:101B3000120BBC468A4CAFE603005A46283B9A403B
:101B400000239146984657E6584601F013F9203095
:101B500040E603005246283B9A400021934677E630
:101B600001F008F920305FE6884500D2C7E64B4611
:101B7000DE075D0843465B081E434346DB079A4683
:101B8000C2E60025924500D333E7039E5946B4468A
:101B9000E244B245AD416D424544EB1801399845E8
:101BA00007D2984200D97FE000D1BCE01D1A8B46D5
:101BB0001FE79845FAD1039D5545F2D943468B4618
:101BC0001D1A16E79B46CAE61500E7E65A46C908FD
:101BD00052070A435B0590465C0D5A460123029961
:101BE00052021940120B8C4656E6002B00D16FE7CB
:101BF00046444A1EB04529D91100864200D065E707
:101C0000039A934200D061E762E701214942012033
:101C1000C21A382A21DD029B03409C4638E60F2277
:101C20000A40042A00D15BE70A00111D914292414B
:101C30005242934454E7474BE318002BE5DD012261
:101C40005242F2E71D00FAE69A461CE7B04239D844
:101C50006ED011003AE702933AE71F2A3CDC2023BA
:101C60009B1A0C005846994098404B1E99415B4680
:101C7000D440D340204308431A00430709D00F2320
:101C80000340042B05D00100081D88429B415B42A4
:101C9000D21813023AD50123029A01241A400023D4
:101CA000944698460022F7E5022149428C46039D5E
:101CB000E344AC46E244AA45AD416D424544ED18CB
:101CC0002D1A96E68A1E03994D008D42894149429C
:101CD0004144761803958FE71F204042C31A5846A7
:101CE000D8400300202A28D040205D46821A954023
:101CF00029434A1E91411943072300220B4009D072
:101D00000F2300220B400800042BBDD10100530714
:101D10005202120BC9081943012388460299002474
:101D200019408C46B8E55245BED88B46002560E682
:101D3000039D9D42C6D3110062E70025D8E78022AB
:101D40005B4612031A43019B1203120B9C46884602
:101D5000034CA1E5FF030000FFFFFFFEFE070000AC
:101D6000FF070000F0B54F464646D6465C00C0B5BA
:101D70001F03DB0F9A46174B0E034D008446804627
:101D8000360B6D0DC90F91463F0B640D01209D422E
:101D900008D09C4201D0A5420BD01CBC904699466D
:101DA000A246F0BD63463343F7D1AC42F5D13A4386
:101DB000F3D10120BE42F0D1C845EED1514507D044
:101DC000002DEAD163461E433000461EB041E4E7D1
:101DD0000020E2E7FF070000F0B54546DE46574623
:101DE0004E46E0B51F033D0B2C4F0E034C00AB4697
:101DF0005D008446360B640DC90F90466D0DDB0FF8
:101E0000BC422AD0254FBD422DD0002C0FD13043EB
:101E10000700814678427841C0B2002D17D15F4655
:101E20003A4314D14B460020002B0AD006E0002D87
:101E300002D15846024301D0994218D048420121AC
:101E400008433CBC90469946A246AB46F0BD0028EC
:101E5000F2D00120013B1843F3E737000743D1D00C
:101E600002204042EDE75F461743CED0F8E7AC4290
:101E7000E4DC03DA481E01210843E2E75E45DDD8D1
:101E800006D000205E45DCD20123481E1843D8E767
:101E9000C445D3D80020C445F6D3D2E7FF070000DD
:101EA000F0B54E464546DE4657465C00E0B51F039A
:101EB000DB0F99462A4B0E034D00C90F8446360BA3
:101EC0006D0D8B4690463F0B640D9D4220D0244BF8
:101ED0009C4222D0002D12D1304343424341DBB219
:101EE000002C1FD0002B0CD04B460120013B03439C
:101EF00018003CBC90469946A246AB46F0BD002C6B
:101F000016D0CB4517D05B46594201230B43EFE770
:101F1000310002230143EBD1D9E7390002231143F9
:101F2000E6D1D7E73A43DDD100230028E0D0EAE745
:101F30003A43E6D1E7E7A542E5DC05DBBE42E2D85D
:101F400007D00023BE42D3D25946012301390B43A7
:101F5000CEE7C445D7D80023C445F5D3C8E7C0466B
:101F6000FF070000F0B557464546DE464E46E0B551
:101F70000C0398464E00230B87B0070092469B4601
:101F8000760DCD0F002E6BD06D4B9E4235D0802448
:101F90005B46420F2404DB0014431C43C3009946F4
:101FA000684BA3469C4600230027664402934346A1
:101FB0001C035A00DB0F5046240B520D984600D1EB
:101FC00076E05F4B9A426DD08023410F1B040B4398
:101FD0005C49E4008C461C43C30000206244414637
:101FE000B6186940721C0191944607430F2F00D91F
:101FF000B0E0554ABF00D25997465B460343994625
:1020000000D087E000239B46023308270293CEE7E7
:1020100042460192022867D0032800D10EE201282F
:1020200000D062E10023002400229946019901407A
:10203000CDB2002112030B0D120B1B051343434AB3
:10204000240513401C436400ED0764082C434846F4
:10205000210007B03CBC90469946A246AB46F0BD75
:10206000034399464FD05B46002B00D189E1584687
:1020700000F080FE03000B3B1C2B00DD7AE11D22EB
:10208000D31A3A0001005C46DA4008398C4013004C
:102090008F4023439B46B94600232D4E0027361A16
:1020A000029384E7534623432AD10024022096E773
:1020B0005346234320D0002C00D157E1200000F0EC
:1020C00059FE03000B3B1C2B00DD49E11D21CB1AFF
:1020D00051460200D9405346083A944093400C437D
:1020E0001B4A121A00207AE70125019B144C1D405F
:1020F0000023002299469CE70024002201206EE77D
:10210000534603206BE700239B4601330427002638
:1021100002934CE7032381460C27029347E7802272
:102120000023002512039946054C82E75C464B4686
:1021300002986FE75C464B46019502986AE7C046F5
:10214000FF07000001FCFFFF30C40008FFFF0F8005
:102150000DFCFFFF4A464946170C1A0C1B041B0CCA
:1021600008041900000C41431500884619007D43FE
:102170007943039589462900150045434D4402954E
:1021800045462D0CAA46029D5544A94506D98A46C6
:10219000802149028946CA4451460391290C049181
:1021A000414609042D04090C88462900250C240405
:1021B0004144240C05912100414388462100794384
:1021C0008A466843414650448146080C48446F4360
:1021D000824503D98021490289464F44010C894632
:1021E00039004944029141460F0404993F0C884646
:1021F0000004C01980444146049159460F0C09045B
:10220000090C884659438A4639005143894641465C
:102210004A435146090C8B467B43D2185A44934299
:1022200003D980235B029B46D94451460904090C1B
:102230008A46414661437C43130C12044B4452448A
:10224000A1468A463C0041466C434D4351464D44AD
:102250000F0C7D19A94503D98021490288464444C1
:10226000049F0399B84641448B46834580414142CF
:102270008846514608042F04000C3F18584602991E
:1022800010188946904292414F44BA4652429946AC
:102290009346C244D144CB448F42BF41C245894199
:1022A00099459B41934592417F4249422D0C5242B0
:1022B0000F435B4213437F19FF185B463C19DB0D4C
:1022C000059A64021C43430213435D1EAB415A4608
:1022D000C00D034352021343E20156D501205A08B0
:1022E00003401343E207134364085A48604400283C
:1022F0004DDD5A0709D00F221A40042A05D01A1DB5
:102300009A429B415B42E4181300E20104D580200D
:10231000514AC00014406044504A904200DDE3E658
:102320000125DB0862071A436402019B9146220BD8
:102330004405640D1D407CE680225946120311427B
:1023400008D0144206D122431203120B4546994687
:10235000434C6EE65B461A431203120B404C68E690
:1023600003005446283B9C400023B9E600F002FDE0
:102370002030A6E60300283B9F400023BB46994639
:102380008AE600F0F7FC203074E6B446ADE701259C
:102390002A1A382A06DD019B00241D400023002252
:1023A000994646E61F2A21DC20252000AD1A1E0092
:1023B000AB40A840D6405D1EAB4130431843D440EB
:1023C000430709D00F230340042B05D00300181D39
:1023D00098429B415B42E418230221D50125019BD1
:1023E00001241D4000230022994622E61F252100DA
:1023F0006D42281AC1400800202A1DD05F35AA1A54
:10240000944023435C1EA341072503431D40002243
:10241000002D09D00F2200241A401800042AD6D11A
:10242000030065076402220BDB082B430125994654
:10243000019B00241D40FCE50024E2E780220125E9
:102440001203224301991203120B0D409946044CCA
:10245000EFE5C046FF030000FFFFFFFEFE070000A0
:10246000FF070000F0B54646D6464F460C03C0B500
:10247000CD0F4E00610A440F0C43C1005800400DBF
:1024800084468A460F001903500F490A0143C64883
:10249000760DA846DB0FD200844500D1D8E001209C
:1024A0004340AB4200D1A6E06046351A002D00DC67
:1024B00005E1002810D10B00134300D1D7E06B1EBB
:1024C000002B00D04BE153469F1ABA458041641A55
:1024D0004042241A01261EE0B34B9E4248D080237E
:1024E0001B041943382D00DD19E11F2D00DD4CE1DF
:1024F00020230F005B1B10009A409F40E840531EB2
:102500009A41E940074317435346DF1B611ABA4516
:10251000A44164420C1B230200D4C5E06402650A96
:10252000002D00D1F6E0280000F024FC0300083B59
:102530001F2B00DDE9E020223C00D21A9D40D44050
:102540009F4025439E4200DDDBE09E1B731C1F2B3A
:1025500000DD0AE120223800D21A290097402C0021
:102560009140D8407A1E9741DC40002601430F433A
:102570007B0709D00F233B40042B05D03B1DBB42FA
:10258000BF417F42E4191F00230225D5864B013647
:102590009E4200D1AFE0854B01251C4043466207B7
:1025A000FF08640276051743240B760D1D400021B9
:1025B0002403230B0C0D7E4A24051C4314403305D1
:1025C00023435B00ED075B082B43380019001CBC5C
:1025D00090469946A246F0BD012543466207FF0892
:1025E0001743E4081D40704B9E4236D02403760505
:1025F000240B760DDBE76346F31A002B00DC94E036
:102600006046002835D068488642B1D080273F0414
:102610003943382B00DCFDE00A43170000217A1E05
:102620009741574457458041091944420C192302E8
:102630003AD55D4B01369E4200D14BE101225B4B06
:102640001C407B0817401F43E207174364088FE7CD
:102650000800104300D024E721E723003B4300D1CA
:10266000B9E18022120314432403240B9FE72E00B8
:102670007EE70800104300D1CAE0581E84460028B7
:1026800000D0E7E05244524580416418404224188B
:1026900017000126230207D50226CFE764462C4304
:1026A00000D1B3E12C0067467B0700D062E76307E7
:1026B000FF081F4301254346E4081D4093E7002D12
:1026C00078D1751C6D056D0D012D00DCF2E05046D2
:1026D000801A8245BF41651A7F42ED1B844628025D
:1026E00000D48CE05046171ABA4292410C1B554256
:1026F000651B984614E70125434600241D4000272A
:1027000055E72A4CF61A2C4032E73D002838854020
:10271000002717E7380000F02DFB203006E70A43BA
:10272000170000217A1E9741EEE6002B00D0E5E06D
:10273000731C9C465B055B0D012B00DC9FE01A4B74
:102740009C4500D1C5E05244524580416418404246
:102750002418E707520817436408664608E712483A
:10276000854200D185E01D00BCE629001F3EF140F6
:10277000202B00D17FE04022D31A9D402F437D1EA5
:10278000AF4100240F4300268EE72B000F00203BB3
:10279000DF40202D71D040235D1BA9400A43511E0C
:1027A0008A4100211743AFE6FF070000FFFF7FFFCC
:1027B000FFFF0F80002E3ED0B34EB44545D080269B
:1027C00036046D423443382D00DDA8E01F2D00DDB6
:1027D0001FE1202627005046761BB740E8400743FC
:1027E0005046B040461EB041EC403843171ABA423A
:1027F00092410C1B5242A41A664698468BE66446E8
:1028000067462C4300D08BE6002500260027EAE629
:102810001E00ADE61F2B60DC2027F81A0F0084464F
:1028200087401000D840074360468240501E8241D6
:10283000D9401743F5E626005046064305D0ED4340
:10284000002DD3D0904EB445BDD10C001700664684
:1028500098468DE68C4883420BD06346D9E6002D1E
:1028600000D096E00800104300D1E2E00C00170011
:102870009846854E7CE6002580E700218EE7230000
:1028800050460343002E00D0A8E0002B00D1DEE02C
:102890000B00134300D16BE652445245804164184B
:1028A000404224181700230200D4FDE6774B664609
:1028B0001C405DE6250050460543002ECFD1002D7B
:1028C0004FD10C00144300D1A0E00C001700984633
:1028D0004EE666460024002785E61F000800203FDC
:1028E000F8400700202B00D18EE04020C31A994009
:1028F0000A43511E8A410021174392E6002E14D14B
:1029000026005046064362D0DB43002B5CD187187B
:102910009742924164185242A418664687E6504690
:102920002043441EA041002460E7574EB4454ED0DA
:10293000802636045B423443382B00DD7FE01F2BBA
:1029400000DD8BE0202627005046F61AB740D8401D
:1029500007435046B040461EB0410743DC40BF1815
:10296000D6E70D00154300D102E65046801A824595
:10297000BF41651A7F42ED1B8446280200D48DE6D4
:102980005046171ABA4292410C1B5242A41A98465A
:10299000EEE50D00154300D16BE750466707C00810
:1029A00007438020E4080003044207D0CD08054215
:1029B00004D12C009846D70849070F437B0FE40049
:1029C0001C43FF00304ED3E52F4EB445B4D10C006C
:1029D00017006646CCE500270024E8E5002B39D037
:1029E0000B00134300D144E7C0086707074380206A
:1029F000E40800030442E1D0CB080342DED1D7084B
:102A000049070F431C00D9E7002171E70025002783
:102A1000E9E52E002700203EF740202D2FD040264C
:102A2000751BAC4050462043441EA041002438434F
:102A3000DCE6802400252403134E0027D3E550460E
:102A400020430700781E87410024BF1860E70C0070
:102A500017008DE50C0017000B4E89E51E002700BE
:102A6000203EF740202B0CD04026F31A9C405046C5
:102A70002043441EA04107430024BF1848E7002418
:102A8000D0E70024F3E7C046FF070000FFFF7FFF09
:102A900070B50E4E0D031C0349005B002D0B490D54
:102AA000240B5B0DB14204D0084900208B4208D0B2
:102AB00070BD05430120002DFAD1044900208B424E
:102AC000F6D114432000441EA041F1E7FF070000A7
:102AD00030B5134D0A034B00120B5B0DC90F0024D8
:102AE000AB4210DD0F4CA3420FDC80240E4D64037B
:102AF0002243ED1A1F2D0BDD0C48C31ADA40544255
:102B0000002900D11400200030BD094BCC18FAE791
:102B1000084CE840A44663449A400243EFE7C046AD
:102B2000FE0300001D040000330400001304000035
:102B3000FFFFFF7FEDFBFFFF70B5002830D0C3170C
:102B4000C4185C40C50F200000F014F9174B184A58
:102B50001B1AD21A1F2A18DD164AD21A94400022D4
:102B600024035B05240B5B0D0021100024030A0DD8
:102B7000240B12052243104C1B05224013435B001B
:102B8000ED075B082B43190070BD210091400A003E
:102B90000B21081AC4405B052403240B5B0DE3E7FB
:102BA0000025002300240022DEE7C0461E040000AA
:102BB0003304000013040000FFFF0F804100090EE2
:102BC0004B1C70B5DBB24602750AC40F012B14DD35
:102BD000E0239B006D07360BCB1800210A0D28005F
:102BE00012051C4D32435B052A405B0813435B0012
:102BF000E4075B082343190070BD002914D1002DA0
:102C00001ED0280000F0B6F80A281CDC0B232A008E
:102C10001B1ADA40030015339D400F4B12031B1A99
:102C20005B05160B5B0DD8E7002D06D0320B802616
:102C300036036D071643094BCFE7084B0026CCE758
:102C400000230026C9E703002A000B3B9A40002519
:102C5000E3E7C046FFFF0F8089030000FF07000085
:102C6000F0B54C00640D0B03621C450F5B0A520566
:102C70002B43C90FC500520D012A28DD3A4AA61878
:102C8000FE2E1BDC002E3EDD80010200501E824124
:102C90006D0F2A43DB0013435A0704D00F221A405A
:102CA000042A00D004338022D2041A405AD00136BC
:102CB000FF2E03D09B015B0AF4B201E0FF24002346
:102CC0005802E405400AC90720430843F0BD002C20
:102CD00007D01D43F2D08020DB0080040343FF2691
:102CE000DAE72B4303D00523DB08FF2C03D05B027C
:102CF0005B0AE4B2E4E7002B32D08020C003034338
:102D00005B025B0ADCE73200173214DB80221E27ED
:102D100012041343BF1B1F2F0FDC144A9446644454
:102D20002A00A5402E00A340751EAE41FA40334351
:102D300013430026B0E70024D5E702225242961B37
:102D40001A00F240202F09D0094884466444A34069
:102D50002B435D1EAB41002613439DE70023F7E79D
:102D60000023ADE73400BFE780FCFFFF82FCFFFFDC
:102D7000A2FCFFFF1C2101231B04984201D3000C7D
:102D800010391B0A984201D3000A08391B099842DE
:102D900001D30009043902A2105C40187047C046F4
:102DA0000403020201010101000000000000000014
:102DB00080B500AF074B074A126810210A431A601A
:102DC000002000F009F805F04DFC00231800BD4676
:102DD00080BDC0460020024080B582B000AF786060
:102DE00000F038FF0200FA2399001000FDF796F971
:102DF0000300180000F00EF9796801235B420022FD
:102E0000180000F0E1F800231800BD4602B080BDB4
:102E100080B500AF034B1B685A1C024B1A60C046BA
:102E2000BD4680BDAC00002080B500AF024B1B68E2
:102E30001800BD4680BDC046AC00002080B584B0FF
:102E400000AF7860FFF7F0FF0300BB607B68FB60BA
:102E5000FB68013302D0FB680133FB60C046FFF71B
:102E6000E3FF0200BB68D21AFB689A42F7D3C04660
:102E7000BD4604B080BD000080B582B000AF020046
:102E8000FB1D1A70064BFA1D127811001F220A4012
:102E9000012191400A001A60C046BD4602B080BDC3
:102EA00000E100E0B0B582B000AF02003960FB1D68
:102EB0001A70FB1D1B787F2B32D92F4CFB1D1B7802
:102EC0001A000F231340083B99082B4AFB1D1B785F
:102ED00018000F230340083B9B0806339B00D318C0
:102EE00004331B68FA1D1278100003220240D2003E
:102EF000FF2090400200D2431A403B689B01FF2014
:102F00001840FB1D1B781D0003232B40DB0098405D
:102F100003001A438B1D9B00E31804331A6027E05B
:102F2000164CFB1D1B785BB29B081449FA1D1278E6
:102F300052B29208C03292005258F91D0978080026
:102F400003210140C900FF2088400100C94311400E
:102F50003A689201FF201040FA1D127815000322F2
:102F60002A40D200904002000A43C0339B001A510D
:102F7000C046BD4602B0B0BD00ED00E000E100E09B
:102F800080B582B000AF78607B68013B0C4A934209
:102F900001D9012310E00B4B7A68013A5A600123F2
:102FA0005B4203211800FFF77DFF064B00229A6069
:102FB000044B07221A6000231800BD4602B080BDF2
:102FC000FFFFFF0010E000E080B584B000AFB96003
:102FD0007A600F23FB18021C1A70BA680F23FB18C3
:102FE0001B785BB211001800FFF75CFFC046BD46BE
:102FF00004B080BD80B582B000AF0200FB1D1A7026
:10300000FB1D1B785BB21800FFF736FFC046BD46BC
:1030100002B080BD80B582B000AF78607B681800D8
:10302000FFF7AEFF03001800BD4602B080BD80B5BB
:1030300084B000AF78600F23FB1800221A707B6801
:1030400021229B5CDBB2022B07D07B6804229A63AF
:103050000F23FB1801221A7028E07B681B687A682E
:10306000126812680E218A431A607B681B687A68AE
:103070001268126801218A431A607B68DB6B7A68E8
:10308000126C012191400A005A607B6821220121C3
:1030900099547B682022002199547B685B6B002B3C
:1030A00004D07B685B6B7A68100098470F23FB188D
:1030B0001B781800BD4604B080BD000080B586B006
:1030C00000AF7860396000237B610023FB60002340
:1030D0003B614FE13B681B6801217A6991400A001E
:1030E0001340FB60FB68002B00D140E13B685B684C
:1030F000022B03D03B685B68122B23D17B69DA0873
:103100007B6808329200D3583B617B6907221340E9
:103110009B000F229A401300DA433B6913403B6146
:103120003B681A697B6907210B409B009A4013009A
:103130003A6913433B617B69DA087B680832920085
:103140003969D1507B681B683B617B695B00032256
:103150009A401300DA433B6913403B613B685B686C
:1031600003221A407B695B009A4013003A691343BB
:103170003B617B683A691A603B685B68012B0BD046
:103180003B685B68022B07D03B685B68112B03D060
:103190003B685B68122B30D17B689B683B617B6925
:1031A0005B0003229A401300DA433B6913403B6102
:1031B0003B68DA687B695B009A4013003A69134305
:1031C0003B617B683A699A607B685B683B6101227E
:1031D0007B699A401300DA433B6913403B613B68CB
:1031E0005B681B0901221A407B699A4013003A6907
:1031F00013433B617B683A695A607B68DB683B61DB
:103200007B695B0003229A401300DA433B69134059
:103210003B613B689A687B695B009A4013003A699E
:1032200013433B617B683A69DA603B685A688023E4
:103230005B05134000D19AE0544B544A9269012136
:103240000A439A61514B9B6901221340BB60BB68E2
:103250004F4A7B699B0802339B009B583B617B690B
:10326000032213409B000F229A401300DA433B696C
:1032700013403B617A689023DB059A4213D07B6848
:10328000444A93420DD07B68434A934207D07B68FF
:10329000424A934201D1032306E0052304E00223BE
:1032A00002E0012300E000237A6903210A40920032
:1032B00093403A6913433B6135497B699B0802336C
:1032C0009B003A695A50364B1B683B61FB68DA43F6
:1032D0003B6913403B613B685A6880235B021340A3
:1032E00003D03A69FB6813433B612D4B3A691A607E
:1032F0002B4B5B683B61FB68DA433B6913403B61E6
:103300003B685A6880239B02134003D03A69FB68EC
:1033100013433B61224B3A695A60214B9B683B61E6
:10332000FB68DA433B6913403B613B685A68802382
:103330005B03134003D03A69FB6813433B61184BAE
:103340003A699A60164BDB683B61FB68DA433B697C
:1033500013403B613B685A6880239B03134003D0B2
:103360003A69FB6813433B610D4B3A69DA607B694C
:1033700001337B613B681A687B69DA40131E00D019
:10338000A8E6C046BD4606B080BDC046001002405B
:10339000000001400004004800080048000C0048FC
:1033A0000004014080B582B000AF786008001100D1
:1033B000BB1C021C1A807B1C0A1C1A707B1C1B780D
:1033C000002B04D0BB1C1A887B689A6103E0BB1CED
:1033D0001A887B689A62C046BD4602B080BD000074
:1033E00080B586B000AF786000233B617B681B68C6
:1033F0000122134000D18DE0C34B5B680C221340C7
:10340000042B0ED0C04B5B680C221340082B16D146
:10341000BD4B5A6880235B021A4080235B029A42AC
:103420000DD1B94B1A6880239B02134000D170E084
:103430007B685B68002B00D06BE00123B5E27B6802
:103440005B68012B07D1B04BAF4A1268802149025B
:103450000A431A602FE07B685B68002B0CD1AA4BF3
:10346000A94A1268A9490A401A60A74BA64A1268DD
:10347000A7490A401A601EE07B685B68052B0ED1E5
:10348000A14BA14A12688021C9020A431A609E4BCF
:103490009D4A1268802149020A431A600BE09A4B48
:1034A000994A126899490A401A60974B964A1268DD
:1034B00097490A401A607B685B68002B14D0FFF7BD
:1034C000B3FC03003B6108E0FFF7AEFC02003B6980
:1034D000D31A642B01D9032367E28B4B1A6880232C
:1034E0009B021340F0D015E0FFF79EFC03003B6108
:1034F00008E0FFF799FC02003B69D31A642B01D95D
:10350000032352E2804B1A6880239B021340F0D1C0
:1035100000E0C0467B681B680222134000D169E0CE
:10352000794B5B680C2213400BD0774B5B680C2205
:103530001340082B1CD1744B5A6880235B02134044
:1035400016D1714B1B680222134005D07B68DB68E3
:10355000012B01D0012328E26B4A6B4B1B68F82139
:103560008B4319007B681B69DB000B43136041E050
:103570007B68DB68002B24D0634B634A126801210F
:103580000A431A60FFF750FC03003B6108E0FFF7B5
:103590004BFC02003B69D31A022B01D9032304E23E
:1035A000594B1B6802221340F1D0574A564B1B68F7
:1035B000F8218B4319007B681B69DB000B43136008
:1035C00018E0514B504A126801218A431A60FFF7F4
:1035D0002BFC03003B6108E0FFF726FC02003B697F
:1035E000D31A022B01D90323DFE1474B1B680222C8
:1035F0001340F1D17B681B680822134036D07B68EA
:10360000DB69002B19D0404B3F4A526A01210A4323
:103610005A62FFF709FC03003B6108E0FFF704FC76
:1036200002003B69D31A022B01D90323BDE1364BBB
:103630005B6A02221340F1D018E0334B324A526ADF
:1036400001218A435A62FFF7EFFB03003B6108E068
:10365000FFF7EAFB02003B69D31A022B01D90323CF
:10366000A3E1294B5B6A02221340F1D17B681B68FE
:103670000422134000D1B5E01723FB1800221A7072
:10368000214BDA6980235B05134011D11E4B1E4A82
:10369000D269802149050A43DA611B4BDA6980232C
:1036A0005B051340FB60FB681723FB1801221A70AF
:1036B000184B1A6880235B0013401AD1154B154A2A
:1036C0001268802149000A431A60FFF7ADFB03002E
:1036D0003B6108E0FFF7A8FB02003B69D31A642BAB
:1036E00001D9032361E10B4B1A6880235B0013406F
:1036F000F0D07B689B68012B0ED1034B024A126A03
:1037000001210A431A6235E000100240FFFFFEFF6C
:10371000FFFFFBFF007000407B689B68002B0CD113
:10372000A44BA44A126A01218A431A62A14BA14AFE
:10373000126A04218A431A621CE07B689B68052B8D
:103740000CD19C4B9B4A126A04210A431A62994B82
:10375000984A126A01210A431A620BE0954B954A76
:10376000126A01218A431A62924B924A126A042118
:103770008A431A627B689B68002B14D0FFF754FBC6
:1037800003003B6109E0FFF74FFB02003B69D31ADE
:10379000894A934201D9032307E1864B1B6A02221F
:1037A0001340F0D013E0FFF73FFB03003B6109E05B
:1037B000FFF73AFB02003B69D31A7F4A934201D9D3
:1037C0000323F2E07B4B1B6A02221340F0D1172344
:1037D000FB181B78012B05D1764B764AD2697749C5
:1037E0000A40DA617B681B681022134063D07B6853
:1037F0005B69012B2AD16F4B6E4A526B04210A433D
:103800005A636C4B6B4A526B01210A435A63FFF7B0
:103810000BFB03003B6108E0FFF706FB02003B697E
:10382000D31A022B01D90323BFE0624B5B6B022248
:103830001340F1D05F4A5F4B5B6BF8218B4319005B
:103840007B689B69DB000B43536334E07B685B69F7
:10385000053311D1574B574A526B04218A435A639F
:10386000544A544B5B6BF8218B4319007B689B696E
:10387000DB000B4353631EE04E4B4E4A526B042158
:103880000A435A634B4B4B4A526B01218A435A639A
:10389000FFF7CAFA03003B6108E0FFF7C5FA020030
:1038A0003B69D31A022B01D903237EE0414B5B6BAA
:1038B00002221340F1D17B681B6A002B00D173E018
:1038C0003C4B5B680C221340082B00D16AE07B68FC
:1038D0001B6A022B4BD1374B364A126838490A40D3
:1038E0001A60FFF7A1FA03003B6108E0FFF79CFABA
:1038F00002003B69D31A022B01D9032355E02D4B5B
:103900001A6880239B041340F0D12A4A294BDB6AB2
:103910000F218B4319007B68DB6A0B43D362254A76
:10392000244B5B68274919407B68986A7B685B6A0F
:1039300003430B4353601F4B1E4A12688021490406
:103940000A431A60FFF770FA03003B6108E0FFF7D3
:103950006BFA02003B69D31A022B01D9032324E03E
:10396000144B1A6880239B041340F0D01CE0114BC9
:10397000104A126812490A401A60FFF755FA03000C
:103980003B6108E0FFF750FA02003B69D31A022BB3
:1039900001D9032309E0074B1A6880239B041340D5
:1039A000F0D101E0012300E000231800BD4606B07D
:1039B00080BDC0460010024088130000FFFFFFEFEB
:1039C000FFFFFFFEFFFFC2FF80B584B000AF78604D
:1039D00039600023FB60694B1B6801221A403B6879
:1039E0009A4211D2654B654A126801218A4311003F
:1039F0003A680A431A60614B1B6801221A403B680F
:103A00009A4201D00123B5E07B681B680222134073
:103A100009D05B4A5A4B5B68F0218B4319007B68E5
:103A20009B680B4353607B681B680122134000D1E5
:103A300067E07B685B68012B07D1514B1A688023D4
:103A40009B02134014D1012394E07B685B68022B36
:103A500007D14B4B1A6880239B04134008D10123E4
:103A600088E0474B1B680222134001D1012381E00B
:103A7000434A434B5B6803218B4319007B685B68B7
:103A80000B435360FFF7D0F90300FB607B685B6872
:103A9000012B11D109E0FFF7C7F90200FB68D31A27
:103AA000384A934201D9032364E0354B5B680C220A
:103AB0001340042BEFD124E07B685B68022B1BD101
:103AC00009E0FFF7B1F90200FB68D31A2D4A9342CF
:103AD00001D903234EE02A4B5B680C221340082BCC
:103AE000EFD10EE0FFF7A0F90200FB68D31A254AD8
:103AF000934201D903233DE0214B5B680C22134024
:103B0000F0D11E4B1B6801221A403B689A4211D922
:103B10001A4B1A4A126801218A4311003A680A4373
:103B20001A60164B1B6801221A403B689A4201D06A
:103B300001231FE07B681B680422134008D0104A51
:103B40000F4B5B68104919407B68DB680B4353607F
:103B500000F020F801000A4B5B681B090F2213409C
:103B60000A4AD35C0A00DA40094B1A600020FFF7CA
:103B700033F900231800BD4604B080BD0020024088
:103B80000010024088130000FFF8FFFF70C4000817
:103B90001800002090B58FB000AF1423FB18284AFE
:103BA00013CA13C312681A603B1D264A13CA13C3F3
:103BB00012681A600023FB620023BB6200237B6350
:103BC00000237B6200233B631F4B5B68FB62FB6A45
:103BD0000C221340042B02D0082B03D027E01B4BF0
:103BE0003B6327E0FB6A9B0C0F2213401422BA1898
:103BF000D35C7B62144BDB6A0F2213403A1DD35C0B
:103C0000BB62FA6A80235B02134009D0B96A0F488D
:103C1000FCF784FA03001A007B6A53437B6303E0DA
:103C20007B6A0B4A53437B637B6B3B6302E0074B2E
:103C30003B63C0463B6B1800BD460FB090BDC0460D
:103C400040C1000850C100080010024000127A0074
:103C500000093D0080B500AF024B1B681800BD464F
:103C600080BDC0461800002080B500AFFFF7F2FF0E
:103C70000100064B5B681B0A07221340044AD35C11
:103C8000D9400B001800BD4680BDC0460010024060
:103C900080C4000880B582B000AF78607B68002BDC
:103CA00001D101231EE07B683D229B5CDBB2002B2F
:103CB00007D17B683C22002199547B68180004F0EE
:103CC00003FF7B683D22022199547B681A687B6858
:103CD00004331900100000F019FA7B683D2201211D
:103CE000995400231800BD4602B080BD80B582B053
:103CF00000AF78607B68002B01D101231EE07B6858
:103D00003D229B5CDBB2002B07D17B683C2200216B
:103D100099547B68180000F015F87B683D22022159
:103D200099547B681A687B6804331900100000F00E
:103D3000EDF97B683D220121995400231800BD460E
:103D400002B080BD80B582B000AF7860C046BD468D
:103D500002B080BD80B582B000AF786039607B680A
:103D60001B6839680122180000F010FD7B681B6891
:103D7000164A93420ED07B681B68154A934209D0BD
:103D80007B681B68134A934204D07B681B68124A05
:103D9000934201D1012300E00023002B08D07B686F
:103DA0001B687A681268526C802109020A435A64BF
:103DB0007B681B687A681268126801210A431A60DE
:103DC00000231800BD4602B080BDC046002C014053
:103DD00000400140004401400048014080B584B0EB
:103DE00000AFF860B9607A60FB683C229B5C012BF5
:103DF00001D10223A4E0FB683C2201219954FB6815
:103E00003D22022199547B68042B29D002D8002B33
:103E100005D08CE0082B46D00C2B65D087E0FB68E2
:103E20001B68BA681100180000F0F2F9FB681B6803
:103E3000FA681268926908210A439A61FB681B6854
:103E4000FA681268926904218A439A61FB681B68C8
:103E5000FA6812689169BA6812690A439A6166E061
:103E6000FB681B68BA681100180000F05FFAFB6875
:103E70001B68FA6812689269802109010A439A61F5
:103E8000FB681B68FA68126892692F490A409A61B8
:103E9000FB681B68FA6812689169BA6812691202B5
:103EA0000A439A6143E0FB681B68BA681100180076
:103EB00000F0C6FAFB681B68FA681268D26908212C
:103EC0000A43DA61FB681B68FA681268D269042148
:103ED0008A43DA61FB681B68FA681268D169BA68BC
:103EE00012690A43DA6122E0FB681B68BA681100B4
:103EF000180000F031FBFB681B68FA681268D26991
:103F0000802109010A43DA61FB681B68FA681268BC
:103F1000D2690D490A40DA61FB681B68FA681268C9
:103F2000D169BA68126912020A43DA61C046FB68B5
:103F30003D2201219954FB683C2200219954002321
:103F40001800BD4604B080BDFFFBFFFF80B584B004
:103F500000AF786039600023FB607B683C229B5C8B
:103F6000012B01D10223CAE07B683C220121995434
:103F70007B683D22022199547B681B689B68FB602B
:103F8000FB6877229343FB60FB685F4A1340FB604A
:103F90007B681B68FA689A603B681B68402B00D1FD
:103FA00078E00ED8102B00D18BE003D8002B00D185
:103FB00080E09BE0202B00D18AE0302B00D18EE006
:103FC00094E0702B17D004D8502B43D0602B51D0E5
:103FD0008CE080225201934204D0802292019342CD
:103FE00024D083E07B681B687A6812689268072196
:103FF0008A439A607AE07B6818683B6899683B68F6
:104000005A683B68DB6800F09FFB7B681B689B6815
:10401000FB60FB6877229343FB60FB6877221343C6
:10402000FB607B681B68FA689A605FE07B681868D1
:104030003B6899683B685A683B68DB6800F084FB22
:104040007B681B687A68126892688021C9010A43FC
:104050009A604BE07B6818683B6859683B68DB688E
:104060001A0000F0E9FA7B681B685021180000F084
:104070004BFB3BE07B6818683B6859683B68DB6832
:104080001A0000F00BFB7B681B686021180000F031
:104090003BFB2BE07B6818683B6859683B68DB6832
:1040A0001A0000F0C9FA7B681B684021180000F074
:1040B0002BFB1BE07B681B680021180000F024FB31
:1040C00014E07B681B681021180000F01DFB0DE058
:1040D0007B681B682021180000F016FB06E07B6857
:1040E0001B683021180000F00FFBC0467B683D22A2
:1040F000012199547B683C22002199540023180027
:10410000BD4604B080BDC046FF00FFFF80B584B04F
:1041100000AF786039600023FB607B681B68FB6040
:104120007B68344A934208D07A688023DB059A4240
:1041300003D07B68304A934208D1FB6870229343D6
:10414000FB603B685B68FA681343FB607B68294A45
:10415000934218D07A688023DB059A4213D07B689B
:10416000254A93420FD07B68244A93420BD07B6848
:10417000234A934207D07B68224A934203D07B684C
:10418000214A934208D1FB68204A1340FB603B68F8
:10419000DB68FA681343FB60FB68802293431A00D4
:1041A0003B685B691343FB607B68FA681A603B6895
:1041B0009A687B68DA623B681A687B689A627B68F7
:1041C0000C4A93420BD07B680D4A934207D07B6820
:1041D0000C4A934203D07B680B4A934203D13B685D
:1041E0001A697B681A637B6801225A61C046BD4622
:1041F00004B080BD002C01400004004000200040BD
:10420000004001400044014000480140FFFCFFFF26
:1042100080B586B000AF786039600023FB60002372
:104220007B6100233B617B681B6A012293431A0078
:104230007B681A627B681B6A7B617B685B683B6199
:104240007B689B69FB60FB6870229343FB60FB68A3
:1042500003229343FB603B681B68FA681343FB60CF
:104260007B69022293437B613B689B687A691343B5
:104270007B617B68274A93420BD07B68264A934236
:1042800007D07B68254A934203D07B68244A934237
:104290000CD17B69082293437B613B68DB687A69B8
:1042A00013437B617B69042293437B617B68194ADA
:1042B00093420BD07B68184A934207D07B68174A19
:1042C000934203D07B68164A934211D13B69154A49
:1042D00013403B613B69144A13403B613B685B6997
:1042E0003A6913433B613B689B693A6913433B61FD
:1042F0007B683A695A607B68FA689A613B685A68D9
:104300007B685A637B687A691A62C046BD4606B00C
:1043100080BDC046002C01400040014000440140E7
:1043200000480140FFFEFFFFFFFDFFFF80B586B0A4
:1043300000AF786039600023FB6000237B610023BD
:104340003B617B681B6A102293431A007B681A62E8
:104350007B681B6A7B617B685B683B617B689B69F0
:10436000FB60FB682E4A1340FB60FB682D4A13403C
:10437000FB603B681B681B02FA681343FB607B69A8
:10438000202293437B613B689B681B017A6913433E
:104390007B617B68244A93420DD17B6980229343E1
:1043A0007B613B68DB681B017A6913437B617B6936
:1043B000402293437B617B681B4A93420BD07B680E
:1043C0001A4A934207D07B68194A934203D07B680C
:1043D000184A934213D13B69174A13403B613B692A
:1043E000164A13403B613B685B699B003A69134383
:1043F0003B613B689B699B003A6913433B617B6867
:104400003A695A607B68FA689A613B685A687B68C7
:104410009A637B687A691A62C046BD4606B080BD61
:10442000FF8FFFFFFFFCFFFF002C01400040014019
:104430000044014000480140FFFBFFFFFFF7FFFF82
:1044400080B586B000AF786039600023FB60002340
:104450007B6100233B617B681B6A354A1A407B689D
:104460001A627B681B6A7B617B685B683B617B6867
:10447000DB69FB60FB6870229343FB60FB680322EF
:104480009343FB603B681B68FA681343FB607B69DE
:10449000284A13407B613B689B681B027A6913437F
:1044A0007B617B68244A93420DD17B69234A134088
:1044B0007B613B68DB681B027A6913437B617B6924
:1044C0001F4A13407B617B681B4A93420BD07B6879
:1044D0001C4A934207D07B681B4A934203D07B68F7
:1044E0001A4A934213D13B69194A13403B613B6915
:1044F000184A13403B613B685B691B013A691343EF
:104500003B613B689B691B013A6913433B617B68D4
:104510003A695A607B68FA68DA613B685A687B6876
:10452000DA637B687A691A62C046BD4606B080BD10
:10453000FFFEFFFFFFFDFFFF002C0140FFF7FFFF25
:10454000FFFBFFFF004001400044014000480140E4
:10455000FFEFFFFFFFDFFFFF80B586B000AF7860A1
:10456000396000233B610023FB6000237B617B6893
:104570001B6A284A1A407B681A627B681B6AFB60C8
:104580007B685B687B617B68DB693B613B69224AD6
:1045900013403B613B69214A13403B613B681B6808
:1045A0001B023A6913433B61FB681D4A1340FB60E1
:1045B0003B689B681B03FA681343FB607B68194ADE
:1045C00093420BD07B68184A934207D07B68174A06
:1045D000934203D07B68164A934209D17B69154AFE
:1045E00013407B613B685B699B017A6913437B6184
:1045F0007B687A695A607B683A69DA613B685A6815
:104600007B681A647B68FA681A62C046BD4606B0C9
:1046100080BDC046FFEFFFFFFF8FFFFFFFFCFFFFE6
:10462000FFDFFFFF002C014000400140004401403B
:1046300000480140FFBFFFFF80B586B000AFF860C3
:10464000B9607A6000237B6100233B61FB681B6AD1
:104650003B61FB681B6A012293431A00FB681A62E4
:10466000FB689B697B617B69F02293437B617B687C
:104670001B017A6913437B613B690A2293433B61C7
:104680003A69BB6813433B61FB687A699A61FB68CE
:104690003A691A62C046BD4606B080BD80B586B094
:1046A00000AFF860B9607A6000237B6100233B6152
:1046B000FB681B6A102293431A00FB681A62FB68AE
:1046C0009B697B61FB681B6A3B617B690D4A1340F8
:1046D0007B617B681B037A6913437B613B69A02282
:1046E00093433B61BB681B013A6913433B61FB6821
:1046F0007A699A61FB683A691A62C046BD4606B09B
:1047000080BDC046FF0FFFFF80B584B000AF78606A
:104710000A00BB1C1A800023FB607B689B68FB605F
:10472000FB6870229343FB60BB1C1B88072213436A
:104730009BB21A00FB681343FB607B68FA689A60BF
:10474000C046BD4604B080BD80B586B000AFF860FD
:10475000B9607A603B6000237B61FB689B687B618A
:104760007B69094A13407B613B681A027B681A43E4
:10477000BB6813437A6913437B61FB687A699A606B
:10478000C046BD4606B080BDFF00FFFF80B586B0C5
:1047900000AFF860B9607A6000237B610122BB68DA
:1047A0009A4013007B61FB681B6A7A69D2431A4006
:1047B000FB681A62FB681A6A7968BB6899400B004B
:1047C0001A43FB681A62C046BD4606B080BD80B57C
:1047D00082B000AF786039607B683C229B5C012B23
:1047E00001D1022332E07B683C22012199547B688D
:1047F0003D22022199547B681B687A6812685268CE
:1048000070218A435A607B681B687A681268516815
:104810003A6812680A435A607B681B687A681268B3
:10482000926880218A439A607B681B687A68126864
:1048300091683A6852680A439A607B683D22012178
:1048400099547B683C220021995400231800BD46EE
:1048500002B080BD80B584B000AF786039600023BD
:10486000FB607B683C229B5C012B01D102234DE065
:104870007B683C22012199547B683D220221995496
:10488000FB68FF2293431A003B68DB681343FB601D
:10489000FB68204A1A403B689B681343FB60FB6837
:1048A0001D4A1A403B685B681343FB60FB681B4A68
:1048B0001A403B681B681343FB60FB68184A1A40A8
:1048C0003B681B691343FB60FB68164A1A403B6850
:1048D0005B691343FB60FB68134A1A403B689B69A2
:1048E0001343FB60FB68114A1A403B689B69134302
:1048F000FB607B681B68FA685A647B683D22012173
:1049000099547B683C220021995400231800BD462D
:1049100004B080BDFFFCFFFFFFFBFFFFFFF7FFFFC1
:10492000FFEFFFFFFFDFFFFFFFBFFFFFFF7FFFFF87
:1049300080B582B000AF78607B68002B01D1012385
:1049400047E07B6869229B5CDBB2002B07D17B6868
:104950006822002199547B68180004F091F97B6863
:104960006922242199547B681B687A68126812684E
:1049700001218A431A607B68180000F031FA0300B5
:10498000012B01D1012324E07B685B6A002B03D05B
:104990007B68180000F09AFB7B681B687A681268D5
:1049A00052680E490A405A607B681B687A68126830
:1049B00092682A218A439A607B681B687A68126829
:1049C000126801210A431A607B68180000F02AFC73
:1049D00003001800BD4602B080BDC046FFB7FFFF10
:1049E00080B584B000AFF860B960BB1D1A80FB6869
:1049F00069229B5CDBB2202B45D1BB68002B03D026
:104A0000BB1D1B88002B01D101233DE0FB689A6888
:104A100080235B019A4209D1FB681B69002B05D1F9
:104A2000BB680122134001D001232DE0FB686822FE
:104A30009B5C012B01D1022326E0FB686822012147
:104A40009954FB68BA68DA64FB68BA1D5021128871
:104A50005A52FB68BA1D522112885A52FB68002232
:104A6000DA66FB68692221219954FB6868220021DB
:104A70009954FB681B68FA681268126880210A431F
:104A80001A60002300E002231800BD4604B080BD78
:104A900080B584B000AFF860B960BB1D1A80FB68B8
:104AA0006A229B5CDBB2202B00D073E0BB68002B3A
:104AB00003D0BB1D1B88002B01D101236BE0FB68D9
:104AC0009A6880235B019A4209D1FB681B69002B1D
:104AD00005D1BB680122134001D001235BE0FB68D4
:104AE00068229B5C012B01D1022354E0FB68682201
:104AF00001219954FB68BA685A65FB68BA1D5821B0
:104B000012885A52FB68BA1D5A2112885A52FB6801
:104B10009A6880235B019A420DD1FB681B69002BC8
:104B200004D1FB685C221E49995215E0FB685C22A7
:104B3000FF21995210E0FB689B68002B0CD1FB68A9
:104B40001B69002B04D1FB685C22FF21995203E012
:104B5000FB685C227F219952FB680022DA66FB68C1
:104B60006A2222219954FB68682200219954FB682B
:104B70001B68FA681268926801210A439A60FB6810
:104B80001B68FA6812681268902149000A431A608B
:104B9000002300E002231800BD4604B080BDC046DB
:104BA000FF01000080B586B000AF78607B681B68AD
:104BB000DB697B617B681B681B683B617B690F223B
:104BC0001340FB60FB68002B0CD17B692022134053
:104BD00008D03B692022134004D07B68180000F005
:104BE00065FCEFE07B681B689B68BB60FB68002B83
:104BF00000D1AFE0BB680122134005D13A69902390
:104C00005B00134000D1A5E07B69012213400ED068
:104C10003A6980235B00134009D07B681B6801223E
:104C20001A627B68DB6E01221A437B68DA667B6955
:104C3000022213400DD0BB680122134009D07B68CB
:104C40001B6802221A627B68DB6E04221A437B68AF
:104C5000DA667B69042213400DD0BB680122134041
:104C600009D07B681B6804221A627B68DB6E022213
:104C70001A437B68DA667B690822134011D03B69CE
:104C80002022134003D1BB680122134009D07B6866
:104C90001B6808221A627B68DB6E08221A437B6855
:104CA000DA667B68DB6E002B00D18AE07B6920220C
:104CB000134007D03B692022134003D07B681800C3
:104CC00000F0F4FB7B68DB6E0822134005D17B68A3
:104CD0001B689B684022134032D07B68180000F0AC
:104CE0003FFB7B681B689B684022134023D07B6896
:104CF0001B687A681268926840218A439A607B68D0
:104D00005B6E002B12D07B685B6E304A5A637B6807
:104D10005B6E1800FEF78BF9031E19D07B685B6E83
:104D20005A6B7B685B6E1800904711E07B68180037
:104D300000F04EF80CE07B68180000F049F807E03E
:104D40007B68180000F044F87B680022DA6638E0DF
:104D5000C04636E07A6980235B03134016D0BA68F8
:104D60008023DB03134011D07B681B688022520331
:104D70001A627B686922202199547B686A2220216B
:104D800099547B68180000F00BFC1BE07B698022C3
:104D9000134008D03B698022134004D07B68180080
:104DA00000F013FB0EE07B69402213400AD03B6900
:104DB0004022134006D07B68180000F05DFBC0461F
:104DC00000E0C046BD4606B080BDC0469D53000809
:104DD00080B582B000AF7860C046BD4602B080BDED
:104DE00090B587B000AF78600023FB601723FB18F5
:104DF00010221A700A23FB1800221A801423FB18B1
:104E000000221A801323FB1800221A707B689A680C
:104E10007B681B691A437B685B691A437B68DB69A3
:104E20001343FB607B681B687A68126812689F49AD
:104E30001140FA680A431A607B681B687A68126836
:104E400052689B4911407A68D2680A435A607B686D
:104E50009A697B681B6A1343FB607B681B687A68EE
:104E60001268926893491140FA680A439A607B6815
:104E70001B68914A934225D1904B1B6B0322134030
:104E8000012B0FD004D3022B11D0032B05D013E03C
:104E90001723FB1800221A7022E01723FB180222A6
:104EA0001A701DE01723FB1804221A7018E017234C
:104EB000FB1808221A7013E01723FB1810221A702F
:104EC000C0460DE07B681B687D4A934204D11723DE
:104ED000FB1800221A7003E01723FB1810221A7027
:104EE0007B68DA6980231B029A4200D07BE017239B
:104EF000FB181B78022B1CD002DC002B05D04FE0E6
:104F0000042B27D0082B39D04AE0FEF7ADFE030072
:104F10005A007B685B685B08D2187B685B68190085
:104F20001000FBF7FBF803001A001423FB181A808B
:104F30003BE07B685B685B08624A9A187B685B6849
:104F400019001000FBF7EAF803001A001423FB18FD
:104F50001A802AE0FEF71EFE03005A007B685B6899
:104F60005B08D2187B685B6819001000FBF7D6F865
:104F700003001A001423FB181A8016E07B685B6894
:104F80005B08802252029A187B685B681900100047
:104F9000FBF7C4F803001A001423FB181A8004E07E
:104FA0001323FB1801221A70C0460A23FB1814228F
:104FB000BA1812880F218A431A801423FB181B8801
:104FC0005B109BB20722134099B20A23FB180A22F6
:104FD000BA1812880A431A807B681B680A22BA181A
:104FE0001288DA605BE01723FB181B78022B1BD0BA
:104FF00002DC002B05D04DE0042B26D0082B37D047
:1050000048E07B681C68FEF72FFE02007B685B6847
:105010005B08D2187B685B6819001000FBF77EF80C
:1050200003009BB2E3603AE07B681C687B685B68C6
:105030005B08254A9A187B685B6819001000FBF72B
:105040006DF803009BB2E36029E07B681C68FEF703
:10505000A1FD02007B685B685B08D2187B685B6817
:1050600019001000FBF75AF803009BB2E36016E04A
:105070007B681C687B685B685B08802212029A1858
:105080007B685B6819001000FBF748F803009BB2CF
:10509000E36004E01323FB1801221A70C0461323B7
:1050A000FB181B781800BD4607B090BDF369FFFFE1
:1050B000FFCFFFFFFFF4FFFF003801400010024068
:1050C000004400400024F40000127A0080B582B051
:1050D00000AF78607B685B6A012213400AD07B686E
:1050E0001B687A6812685268454911407A68926A6A
:1050F0000A435A607B685B6A022213400AD07B68CD
:105100001B687A68126852683E4911407A68D26A10
:105110000A435A607B685B6A042213400AD07B68AA
:105120001B687A6812685268374911407A68126BB6
:105130000A435A607B685B6A082213400AD07B6886
:105140001B687A6812685268304911407A68526B5D
:105150000A435A607B685B6A102213400AD07B685E
:105160001B687A6812689268294911407A68926BC4
:105170000A439A607B685B6A202213400AD07B68EE
:105180001B687A6812689268224911407A68D26B6B
:105190000A439A607B685B6A402213401BD07B689D
:1051A0001B687A68126852681B4911407A68126C51
:1051B0000A435A607B681A6C80235B039A420AD1C7
:1051C0007B681B687A6812685268144911407A68D3
:1051D000526C0A435A607B685B6A802213400AD093
:1051E0007B681B687A68126852680D4911407A68BA
:1051F000926C0A435A60C046BD4602B080BDC046AC
:10520000FFFFFDFFFFFFFEFFFFFFFBFFFF7FFFFF35
:10521000FFEFFFFFFFDFFFFFFFFFEFFFFFFF9FFF3E
:10522000FFFFF7FF80B586B002AF78600023FB6018
:105230007B680022DA66FDF7F7FD0300FB607B6800
:105240001B681F4A934229D17B681B681B68082290
:105250001340082B0DD1FA68802399037868194B05
:1052600000931300002200F02FF8031E01D0032347
:1052700021E07B681B681B6804221340042B0DD1BE
:10528000FA688023D90378680E4B0093130000223C
:1052900000F01AF8031E01D003230CE07B6869229A
:1052A000202199547B686A22202199547B686822C6
:1052B0000021995400231800BD4604B080BDC046AB
:1052C00000380140FFFFFF0180B584B000AFF860F7
:1052D000B9603B60FB1D1A702BE0BB69013328D01D
:1052E000BB69002B07D0FDF79FFD02003B68D21A77
:1052F000BB699A421DD9FB681B68FA68126812687C
:1053000016490A401A60FB681B68FA6812689268BE
:1053100001218A439A60FB68692220219954FB6825
:105320006A2220219954FB686822002199540323A2
:105330000FE0FB681B68DB69BA681A40BB68D31AC8
:105340005A425341DBB21A00FB1D1B789A42C4D06B
:1053500000231800BD4604B080BDC0465FFEFFFFBD
:1053600080B582B000AF78607B681B687A6812688D
:10537000126809490A401A607B681B687A681268DB
:10538000926801218A439A607B686A22202199549D
:10539000C046BD4602B080BDDFFEFFFF80B584B0D1
:1053A00000AF78607B685B6AFB60FB685A22002173
:1053B0009952FB68522200219952FB681800FFF7AE
:1053C00007FDC046BD4604B080BD80B584B000AFC7
:1053D00078607B6869229B5CDBB2212B47D17B68BC
:1053E00052229B5A9BB2002B11D17B681B687A68B2
:1053F0001268126880218A431A607B681B687A6889
:105400001268126840210A431A60002330E07B686A
:105410009A6880235B019A4214D17B681B69002B38
:1054200010D17B68DB6CFB607B681B68FA681288B4
:10543000D205D20D92B21A857B68DB6C9A1C7B6810
:10544000DA6409E07B6819687B68DB6C581C7A6851
:10545000D0641B789BB20B857B6852229B5A9BB20F
:10546000013B99B27B6852229952002300E002234B
:105470001800BD4604B080BD80B582B000AF786032
:105480007B681B687A681268126840218A431A6038
:105490007B686922202199547B68180000F030FA5B
:1054A00000231800BD4602B080BD000080B584B066
:1054B00000AF78600E23FB187A685C21525A1A807C
:1054C0007B686A229B5CDBB2222B5AD17B681A680C
:1054D0000C23FB18928C1A807B689A6880235B01EE
:1054E0009A4216D17B681B69002B12D17B685B6DD9
:1054F000BB600C23FB180E22BA181B8812881340BD
:105500009AB2BB681A807B685B6D9A1C7B685A658F
:105510000FE07B685B6D591C7A6851650C22BA18E4
:105520001288D2B20E2179180988C9B20A40D2B2C3
:105530001A707B685A229B5A9BB2013B9BB27A68D5
:105540005A21181C5052002B19D17B681B687A68AD
:105550001268126811490A401A607B681B687A68F1
:105560001268926801218A439A607B686A2220212E
:1055700099547B68180000F0B5F900230AE0002375
:1055800008E07B681B687A681268926908210A4300
:105590009A6102231800BD4604B080BDDFFEFFFF04
:1055A00080B582B000AF7860C046BD4602B080BD15
:1055B00080B588B000AF0C23FB18180014231A0024
:1055C000002103F00BFC4E4B4D4A52698021C90368
:1055D0000A435A614A4B5A698023DB031340BB607C
:1055E000BB68474B464A5269802189020A435A6187
:1055F000434B5A6980239B0213407B607B68404B7E
:105600003F4A52698021C9020A435A613C4B5A6998
:105610008023DB0213403B603B683A4B00220121B0
:105620001800FDF7BFFE802319029023DB0500223E
:105630001800FDF7B7FE344B002238211800FDF7A3
:10564000B1FE0C23FB1801221A600C23FB18012267
:105650005A600C23FB1800229A600C23FB180022CE
:10566000DA600C23FB18274A19001000FDF726FD0D
:105670000C23FB18254A1A600C23FB18244A5A6095
:105680000C23FB1800229A600C23FA189023DB05E8
:1056900011001800FDF712FD0C23FB1880221202E6
:1056A0001A600C23FB1801225A600C23FB180022FD
:1056B0009A600C23FB180022DA600C23FA1890235E
:1056C000DB0511001800FDF7F9FC0C23FB1838224C
:1056D0001A600C23FB1801225A600C23FB180022CD
:1056E0009A600C23FB180022DA600C23FB18064A90
:1056F00019001000FDF7E2FCC046BD4608B080BDB1
:10570000001002400014004800040048031000008C
:105710000000111080B500AF114B00221A70114922
:10572000114B01221800FFF7B3F9C0460C4B1B7850
:10573000DBB2002BFAD00D4B00221A7009490A4B3C
:1057400001221800FFF74CF9C046084B1B78DBB26A
:10575000002BFAD0034B1B781800BD4680BDC04615
:10576000B10000201400002054010020B0000020EF
:1057700080B584B000AF78607A680F4B11001800D4
:1057800003F034FB0300FB60FB68002B0FDD0B4BC9
:1057900000221A70FB689AB20749094B1800FFF7FC
:1057A0001FF9C046054B1B78DBB2002BFAD0FB6813
:1057B0001800BD4604B080BDB4000020B000002039
:1057C0005401002080B586B000AF78607A680B493C
:1057D0000823FB18180003F009FB03007B617B69B9
:1057E000002B06DD0823FB181800FFF7C1FF03009C
:1057F00000E07B691800BD4606B080BD60C10008AE
:1058000090B587B000AFF860B9607A6000237B6123
:105810001323FB1830221A701223FB1800221A706F
:1058200034E01323FC18FFF775FF030023701323E4
:10583000FB181B781B2B04D01323FB181B78782B29
:1058400001D1002349E01323FB181B782D2B03D132
:105850001223FB1801221A701323FB181B782F2B1D
:1058600014D91323FB181B78392B0FD87A697B685E
:105870009A420BDA7A6913009B009B185B001A00AE
:105880001323FB181B78D318303B7B611323FB18C1
:105890001B780D2B09D01323FB181B780A2B04D07F
:1058A0001323FB181B78752BBBD17A69BB689A420E
:1058B00005DD7A697B68934202DD130000E0BB6876
:1058C000FA6813601223FB181B78012B04D1FB68C4
:1058D0001B685A42FB681A6001231800BD4607B0D6
:1058E00090BD000080B582B000AF7860034B01220C
:1058F0001A70C046BD4602B080BDC046B10000204F
:1059000080B582B000AF7860034B01221A70C046A8
:10591000BD4602B080BDC046B000002090B585B045
:1059200000AF040008001100BB1D221C1A803B1DA3
:10593000021C1A80BB1C0A1C1A800023FB60002377
:10594000BB604C4B1B6C002B16D14B4BBB600CE06F
:10595000484BBA681A643B1D1B881800FDF76EFAA5
:10596000BB1C1B88BA68D318BB60BB1C1B88434A8E
:10597000D21ABB689A42EBDCBB1D1B88452B1DD994
:10598000BB1D1B88692B19D8BB1D1B881800FDF790
:10599000D3F83B4A3B4BFCF7E5FA03000C00180038
:1059A0002100FDF795F80300FB60FB68364A94463A
:1059B0006344FB602F4B1B6CBB601CE0BB1D1B8852
:1059C000462B16D8BB1D1B881800FDF7B5F82F4ACB
:1059D0002F4BFCF7C7FA03000C0018002100FDF75D
:1059E00077F80300FB60FB68274A94466344FB603A
:1059F00001E0012339E01F4B1B6CBB60BA68FB68F8
:105A00009A4215DA0CE01B4BBA681A643B1D1B88DE
:105A10001800FDF713FABB1C1B88BA68D318BB60CB
:105A2000BB1C1B88FA68D21ABB689A42EBDC18E0F0
:105A3000BA68FB689A4214DD0CE00E4BBA681A642F
:105A40003B1D1B881800FDF7F9F9BB1C1B88BA68C1
:105A5000D31ABB60BB1C1A88FB68D218BB689A4279
:105A6000EBDB044BFA681A6400231800BD4605B04E
:105A700090BDC046002C0140CA030000B6040000DF
:105A800066666666666614409E02000033333333F2
:105A90003333154090B585B000AF04000800110005
:105AA000BB1D221C1A803B1D021C1A80BB1C0A1C39
:105AB0001A800023FB600023BB60474BDB6B002B8D
:105AC00016D1464BBB600CE0434BBA68DA633B1D12
:105AD0001B881800FDF7B2F9BB1C1B88BA68D318E5
